{
  "_format": "hh-sol-artifact-1",
  "contractName": "SmartFlowPayInvoices",
  "sourceName": "contracts/SmartFlowPayInvoices.sol",
  "abi": [
    {
      "inputs": [],
      "stateMutability": "nonpayable",
      "type": "constructor"
    },
    {
      "inputs": [],
      "name": "InsufficientBalance",
      "type": "error"
    },
    {
      "inputs": [],
      "name": "InvalidAmount",
      "type": "error"
    },
    {
      "inputs": [],
      "name": "InvalidRecipient",
      "type": "error"
    },
    {
      "inputs": [],
      "name": "InvalidToken",
      "type": "error"
    },
    {
      "inputs": [],
      "name": "InvoiceAlreadyExists",
      "type": "error"
    },
    {
      "inputs": [],
      "name": "InvoiceAlreadyPaid",
      "type": "error"
    },
    {
      "inputs": [],
      "name": "InvoiceExpired",
      "type": "error"
    },
    {
      "inputs": [],
      "name": "InvoiceNotFound",
      "type": "error"
    },
    {
      "inputs": [
        {
          "internalType": "address",
          "name": "owner",
          "type": "address"
        }
      ],
      "name": "OwnableInvalidOwner",
      "type": "error"
    },
    {
      "inputs": [
        {
          "internalType": "address",
          "name": "account",
          "type": "address"
        }
      ],
      "name": "OwnableUnauthorizedAccount",
      "type": "error"
    },
    {
      "inputs": [],
      "name": "ReentrancyGuardReentrantCall",
      "type": "error"
    },
    {
      "inputs": [
        {
          "internalType": "address",
          "name": "token",
          "type": "address"
        }
      ],
      "name": "SafeERC20FailedOperation",
      "type": "error"
    },
    {
      "anonymous": false,
      "inputs": [
        {
          "indexed": true,
          "internalType": "bytes32",
          "name": "invoiceId",
          "type": "bytes32"
        },
        {
          "indexed": true,
          "internalType": "address",
          "name": "merchant",
          "type": "address"
        },
        {
          "indexed": false,
          "internalType": "address",
          "name": "token",
          "type": "address"
        },
        {
          "indexed": false,
          "internalType": "uint256",
          "name": "amount",
          "type": "uint256"
        },
        {
          "indexed": false,
          "internalType": "string",
          "name": "note",
          "type": "string"
        },
        {
          "indexed": false,
          "internalType": "uint256",
          "name": "expiresAt",
          "type": "uint256"
        }
      ],
      "name": "InvoiceCreated",
      "type": "event"
    },
    {
      "anonymous": false,
      "inputs": [
        {
          "indexed": true,
          "internalType": "bytes32",
          "name": "invoiceId",
          "type": "bytes32"
        },
        {
          "indexed": true,
          "internalType": "address",
          "name": "merchant",
          "type": "address"
        },
        {
          "indexed": true,
          "internalType": "address",
          "name": "payer",
          "type": "address"
        },
        {
          "indexed": false,
          "internalType": "address",
          "name": "token",
          "type": "address"
        },
        {
          "indexed": false,
          "internalType": "uint256",
          "name": "amount",
          "type": "uint256"
        }
      ],
      "name": "InvoicePaid",
      "type": "event"
    },
    {
      "anonymous": false,
      "inputs": [
        {
          "indexed": true,
          "internalType": "address",
          "name": "previousOwner",
          "type": "address"
        },
        {
          "indexed": true,
          "internalType": "address",
          "name": "newOwner",
          "type": "address"
        }
      ],
      "name": "OwnershipTransferred",
      "type": "event"
    },
    {
      "anonymous": false,
      "inputs": [
        {
          "indexed": true,
          "internalType": "address",
          "name": "merchant",
          "type": "address"
        },
        {
          "indexed": true,
          "internalType": "address",
          "name": "to",
          "type": "address"
        },
        {
          "indexed": false,
          "internalType": "address",
          "name": "token",
          "type": "address"
        },
        {
          "indexed": false,
          "internalType": "uint256",
          "name": "amount",
          "type": "uint256"
        }
      ],
      "name": "Withdrawal",
      "type": "event"
    },
    {
      "inputs": [
        {
          "internalType": "address",
          "name": "token",
          "type": "address"
        },
        {
          "internalType": "uint256",
          "name": "amount",
          "type": "uint256"
        },
        {
          "internalType": "string",
          "name": "note",
          "type": "string"
        },
        {
          "internalType": "uint256",
          "name": "expiresAt",
          "type": "uint256"
        }
      ],
      "name": "createInvoice",
      "outputs": [
        {
          "internalType": "bytes32",
          "name": "invoiceId",
          "type": "bytes32"
        }
      ],
      "stateMutability": "nonpayable",
      "type": "function"
    },
    {
      "inputs": [
        {
          "internalType": "bytes32",
          "name": "invoiceId",
          "type": "bytes32"
        }
      ],
      "name": "getInvoice",
      "outputs": [
        {
          "components": [
            {
              "internalType": "bytes32",
              "name": "invoiceId",
              "type": "bytes32"
            },
            {
              "internalType": "address",
              "name": "merchant",
              "type": "address"
            },
            {
              "internalType": "address",
              "name": "token",
              "type": "address"
            },
            {
              "internalType": "uint256",
              "name": "amount",
              "type": "uint256"
            },
            {
              "internalType": "string",
              "name": "note",
              "type": "string"
            },
            {
              "internalType": "uint256",
              "name": "createdAt",
              "type": "uint256"
            },
            {
              "internalType": "uint256",
              "name": "expiresAt",
              "type": "uint256"
            },
            {
              "internalType": "bool",
              "name": "paid",
              "type": "bool"
            },
            {
              "internalType": "address",
              "name": "payer",
              "type": "address"
            },
            {
              "internalType": "uint256",
              "name": "paidAt",
              "type": "uint256"
            }
          ],
          "internalType": "struct SmartFlowPayInvoices.Invoice",
          "name": "",
          "type": "tuple"
        }
      ],
      "stateMutability": "view",
      "type": "function"
    },
    {
      "inputs": [
        {
          "internalType": "address",
          "name": "merchant",
          "type": "address"
        },
        {
          "internalType": "address",
          "name": "token",
          "type": "address"
        }
      ],
      "name": "getMerchantBalance",
      "outputs": [
        {
          "internalType": "uint256",
          "name": "",
          "type": "uint256"
        }
      ],
      "stateMutability": "view",
      "type": "function"
    },
    {
      "inputs": [
        {
          "internalType": "address",
          "name": "merchant",
          "type": "address"
        }
      ],
      "name": "getMerchantNonce",
      "outputs": [
        {
          "internalType": "uint256",
          "name": "",
          "type": "uint256"
        }
      ],
      "stateMutability": "view",
      "type": "function"
    },
    {
      "inputs": [
        {
          "internalType": "bytes32",
          "name": "",
          "type": "bytes32"
        }
      ],
      "name": "invoices",
      "outputs": [
        {
          "internalType": "bytes32",
          "name": "invoiceId",
          "type": "bytes32"
        },
        {
          "internalType": "address",
          "name": "merchant",
          "type": "address"
        },
        {
          "internalType": "address",
          "name": "token",
          "type": "address"
        },
        {
          "internalType": "uint256",
          "name": "amount",
          "type": "uint256"
        },
        {
          "internalType": "string",
          "name": "note",
          "type": "string"
        },
        {
          "internalType": "uint256",
          "name": "createdAt",
          "type": "uint256"
        },
        {
          "internalType": "uint256",
          "name": "expiresAt",
          "type": "uint256"
        },
        {
          "internalType": "bool",
          "name": "paid",
          "type": "bool"
        },
        {
          "internalType": "address",
          "name": "payer",
          "type": "address"
        },
        {
          "internalType": "uint256",
          "name": "paidAt",
          "type": "uint256"
        }
      ],
      "stateMutability": "view",
      "type": "function"
    },
    {
      "inputs": [
        {
          "internalType": "address",
          "name": "",
          "type": "address"
        },
        {
          "internalType": "address",
          "name": "",
          "type": "address"
        }
      ],
      "name": "merchantBalances",
      "outputs": [
        {
          "internalType": "uint256",
          "name": "",
          "type": "uint256"
        }
      ],
      "stateMutability": "view",
      "type": "function"
    },
    {
      "inputs": [],
      "name": "owner",
      "outputs": [
        {
          "internalType": "address",
          "name": "",
          "type": "address"
        }
      ],
      "stateMutability": "view",
      "type": "function"
    },
    {
      "inputs": [
        {
          "internalType": "bytes32",
          "name": "invoiceId",
          "type": "bytes32"
        }
      ],
      "name": "payInvoice",
      "outputs": [],
      "stateMutability": "nonpayable",
      "type": "function"
    },
    {
      "inputs": [],
      "name": "renounceOwnership",
      "outputs": [],
      "stateMutability": "nonpayable",
      "type": "function"
    },
    {
      "inputs": [
        {
          "internalType": "address",
          "name": "newOwner",
          "type": "address"
        }
      ],
      "name": "transferOwnership",
      "outputs": [],
      "stateMutability": "nonpayable",
      "type": "function"
    },
    {
      "inputs": [
        {
          "internalType": "address",
          "name": "token",
          "type": "address"
        },
        {
          "internalType": "uint256",
          "name": "amount",
          "type": "uint256"
        },
        {
          "internalType": "address",
          "name": "to",
          "type": "address"
        }
      ],
      "name": "withdraw",
      "outputs": [],
      "stateMutability": "nonpayable",
      "type": "function"
    }
  ],
  "bytecode": "0x608060405234801561001057600080fd5b50338061003757604051631e4fbdf760e01b81526000600482015260240160405180910390fd5b6100408161004a565b506001805561009a565b600080546001600160a01b038381166001600160a01b0319831681178455604051919092169283917f8be0079c531659141344cd1fd0a4f28419497f9722a3daafe3b4186f6b6457e09190a35050565b611157806100a96000396000f3fe608060405234801561001057600080fd5b50600436106100a95760003560e01c8063715018a611610071578063715018a6146101385780638da5cb5b146101405780639643ffbe1461015b578063cb802c8b14610186578063f2fde38b146101a6578063f8a8a076146101b957600080fd5b80631628cfa4146100ae578063222ab347146100d45780634feee52a146100e957806354b4ea03146100fc57806369328dec14610125575b600080fd5b6100c16100bc366004610c2a565b6101e2565b6040519081526020015b60405180910390f35b6100e76100e2366004610c5d565b61020f565b005b6100c16100f7366004610c76565b6103a4565b6100c161010a366004610d05565b6001600160a01b031660009081526004602052604090205490565b6100e7610133366004610d27565b610659565b6100e7610790565b6000546040516001600160a01b0390911681526020016100cb565b6100c1610169366004610c2a565b600360209081526000928352604080842090915290825290205481565b610199610194366004610c5d565b6107a4565b6040516100cb9190610da9565b6100e76101b4366004610d05565b610924565b6101cc6101c7366004610c5d565b610964565b6040516100cb9a99989796959493929190610e64565b6001600160a01b038083166000908152600360209081526040808320938516835292905220545b92915050565b610217610a58565b600081815260026020526040902060018101546001600160a01b031661025057604051634d5c803960e11b815260040160405180910390fd5b600781015460ff161561027657604051631915f32960e11b815260040160405180910390fd5b60068101541580159061028c5750806006015442115b156102aa57604051630f04e9cf60e41b815260040160405180910390fd5b60078101805460016001600160a81b03199091166101003302178117909155426008830155600380830154918301546001600160a01b03908116600090815260209283526040808220600287015490931682529190925281208054909190610313908490610ee5565b90915550506003810154600282015461033b916001600160a01b039091169033903090610a82565b600181015460028201546003830154604080516001600160a01b03938416815260208101929092523393929092169185917f61bce195b049e2b054583e737888e5987da14266c85874ce393d1bb95b5693fa910160405180910390a4506103a160018055565b50565b60006001600160a01b0386166103cd5760405163c1ab6dc160e01b815260040160405180910390fd5b846000036103ee5760405163162908e360e11b815260040160405180910390fd5b81158015906103fd5750428211155b1561041b57604051630f04e9cf60e41b815260040160405180910390fd5b3360009081526004602052604081208054908261043783610ef8565b9190505590503387878787428660405160200161045a9796959493929190610f11565b60408051601f198184030181529181528151602092830120600081815260029093529120600101549092506001600160a01b0316156104ac5760405163074bc93560e01b815260040160405180910390fd5b604051806101400160405280838152602001336001600160a01b03168152602001886001600160a01b0316815260200187815260200186868080601f016020809104026020016040519081016040528093929190818152602001838380828437600092018290525093855250504260208085019190915260408085018990526060808601859052608080870186905260a090960185905288855260028084529482902087518155928701516001840180546001600160a01b03199081166001600160a01b03938416179091559288015195840180549093169516949094179055918401516003830155509082015160048201906105a99082610ffc565b5060a0820151600582015560c0820151600682015560e0820151600782018054610100808601516001600160a01b031602610100600160a81b0319931515939093166001600160a81b03199091161791909117905561012090910151600890910155604051339083907f4eb02d6eb572ff0c107fbe8bf292748a9daf9bd9686be92d66963448b01a1d9290610647908b908b908b908b908b906110bc565b60405180910390a35095945050505050565b610661610a58565b6001600160a01b03811661068857604051634e46966960e11b815260040160405180910390fd5b816000036106a95760405163162908e360e11b815260040160405180910390fd5b3360009081526003602090815260408083206001600160a01b03871684529091529020548211156106ed57604051631e9acf1760e31b815260040160405180910390fd5b3360009081526003602090815260408083206001600160a01b03871684529091528120805484929061072090849061110e565b9091555061073a90506001600160a01b0384168284610aef565b604080516001600160a01b0385811682526020820185905283169133917f342e7ff505a8a0364cd0dc2ff195c315e43bce86b204846ecd36913e117b109e910160405180910390a361078b60018055565b505050565b610798610b20565b6107a26000610b4d565b565b60408051610140810182526000808252602082018190529181018290526060808201839052608082015260a0810182905260c0810182905260e0810182905261010081018290526101208101919091526000828152600260208181526040928390208351610140810185528154815260018201546001600160a01b039081169382019390935292810154909116928201929092526003820154606082015260048201805491929160808401919061085a90610f74565b80601f016020809104026020016040519081016040528092919081815260200182805461088690610f74565b80156108d35780601f106108a8576101008083540402835291602001916108d3565b820191906000526020600020905b8154815290600101906020018083116108b657829003601f168201915b50505091835250506005820154602082015260068201546040820152600782015460ff81161515606083015261010090046001600160a01b0316608082015260089091015460a09091015292915050565b61092c610b20565b6001600160a01b03811661095b57604051631e4fbdf760e01b8152600060048201526024015b60405180910390fd5b6103a181610b4d565b60026020819052600091825260409091208054600182015492820154600383015460048401805493956001600160a01b03908116959316939192916109a890610f74565b80601f01602080910402602001604051908101604052809291908181526020018280546109d490610f74565b8015610a215780601f106109f657610100808354040283529160200191610a21565b820191906000526020600020905b815481529060010190602001808311610a0457829003601f168201915b505050506005830154600684015460078501546008909501549394919390925060ff82169161010090046001600160a01b0316908a565b600260015403610a7b57604051633ee5aeb560e01b815260040160405180910390fd5b6002600155565b6040516001600160a01b038481166024830152838116604483015260648201839052610ae99186918216906323b872dd906084015b604051602081830303815290604052915060e01b6020820180516001600160e01b038381831617835250505050610b9d565b50505050565b6040516001600160a01b0383811660248301526044820183905261078b91859182169063a9059cbb90606401610ab7565b6000546001600160a01b031633146107a25760405163118cdaa760e01b8152336004820152602401610952565b600080546001600160a01b038381166001600160a01b0319831681178455604051919092169283917f8be0079c531659141344cd1fd0a4f28419497f9722a3daafe3b4186f6b6457e09190a35050565b600080602060008451602086016000885af180610bc0576040513d6000823e3d81fd5b50506000513d91508115610bd8578060011415610be5565b6001600160a01b0384163b155b15610ae957604051635274afe760e01b81526001600160a01b0385166004820152602401610952565b80356001600160a01b0381168114610c2557600080fd5b919050565b60008060408385031215610c3d57600080fd5b610c4683610c0e565b9150610c5460208401610c0e565b90509250929050565b600060208284031215610c6f57600080fd5b5035919050565b600080600080600060808688031215610c8e57600080fd5b610c9786610c0e565b945060208601359350604086013567ffffffffffffffff80821115610cbb57600080fd5b818801915088601f830112610ccf57600080fd5b813581811115610cde57600080fd5b896020828501011115610cf057600080fd5b96999598505060200195606001359392505050565b600060208284031215610d1757600080fd5b610d2082610c0e565b9392505050565b600080600060608486031215610d3c57600080fd5b610d4584610c0e565b925060208401359150610d5a60408501610c0e565b90509250925092565b6000815180845260005b81811015610d8957602081850181015186830182015201610d6d565b506000602082860101526020601f19601f83011685010191505092915050565b602081528151602082015260006020830151610dd060408401826001600160a01b03169052565b5060408301516001600160a01b0381166060840152506060830151608083015260808301516101408060a0850152610e0c610160850183610d63565b915060a085015160c085015260c085015160e085015260e0850151610100610e378187018315159052565b8601519050610120610e53868201836001600160a01b03169052565b959095015193019290925250919050565b8a81526001600160a01b038a8116602083015289811660408301526060820189905261014060808301819052600091610e9f8483018b610d63565b60a085019990995260c0840197909752505092151560e08401529216610100820152610120015295945050505050565b634e487b7160e01b600052601160045260246000fd5b8082018082111561020957610209610ecf565b600060018201610f0a57610f0a610ecf565b5060010190565b60006bffffffffffffffffffffffff19808a60601b168352808960601b16601484015250866028830152848660488401375060489301928301919091526068820152608801949350505050565b634e487b7160e01b600052604160045260246000fd5b600181811c90821680610f8857607f821691505b602082108103610fa857634e487b7160e01b600052602260045260246000fd5b50919050565b601f82111561078b57600081815260208120601f850160051c81016020861015610fd55750805b601f850160051c820191505b81811015610ff457828155600101610fe1565b505050505050565b815167ffffffffffffffff81111561101657611016610f5e565b61102a816110248454610f74565b84610fae565b602080601f83116001811461105f57600084156110475750858301515b600019600386901b1c1916600185901b178555610ff4565b600085815260208120601f198616915b8281101561108e5788860151825594840194600190910190840161106f565b50858210156110ac5787850151600019600388901b60f8161c191681555b5050505050600190811b01905550565b6001600160a01b0386168152602081018590526080604082018190528101839052828460a0830137600060a08483010152600060a0601f19601f86011683010190508260608301529695505050505050565b8181038181111561020957610209610ecf56fea2646970667358221220b4ede5374078316ebd4aae77c934ba47c039ba0d03bec1a0227f98812a023d2864736f6c63430008140033",
  "linkReferences": {},
  "deployedLinkReferences": {}
}